:100000000C949F010C94D11E0C94A61E0C947B1E84
:100010000C94501E0C94251E0C94FA1D0C94CF1DAC
:100020000C94A41D0C94D0010C94D0010C94D0011C
:100030000C94D0010C94FC1E0C94D0010C94D001B3
:100040000C94D0010C94F91F0C94D0010C94D001A5
:100050000C94D0010C94D0010C94D0010C945A1D36
:100060000C94D0010C94C31F0C94991F0C94D001D4
:100070000C94D0010C94D0010C94D0010C94D001BC
:100080000C94D0010C94D0010C94D0010C94D001AC
:100090000C94D0010C94D0010C94D0010C94361C1B
:1000A0000C94D0010C94D0010C94D0010C94D0018C
:1000B0000C94D0010C94D0010C94D0010C94D0017C
:1000C0000C94D0010C94D0010C94D0010C94D0016C
:1000D0000C94D0010C94D0010C94D0010C94D0015C
:1000E0000C94D0010C94A7070C94BD020C94F90950
:1000F0000C94DB020C94030A0C94D7070C940502B1
:100100000C940D0A0C94FA070C94440A0C94D5092B
:100110000C94DC010C94ED020C948D080C94A1203D
:100120000C9414020C94C1090C94B6020C94E802CD
:100130000C94CD020C94BC090C94B2020C94260AC7
:100140000C94D1020C94DF090C943A0A0C94080820
:100150000C94AB090C9440080C94E9020C945B02DB
:100160000C94BA020C94A6070C94D5020C94A40724
:100170000C94A8020C94E3020C94C7020C94DF02C6
:100180000C94E6070C9404020C94CB090C94D4074D
:100190000C94A5070C94E7090C94C3020C94B40BBF
:1001A0000C944E0A0C94C7270C94A3070C94EF09E7
:1001B0000C941C0A0C94DB010C946D110C94300A05
:1001C0000C94AE020C942E020C949F070C94270200
:1001D000000020002300260029002C002F00320000
:1001E00000010000030106010901CDCCCC3D0AD776
:1001F000233C17B7D13877CC2B329595E6241FB125
:100200004F0A0000803FCDCCCC3D6F12833A95BFA2
:10021000D6337D1D9026B3CE010C00002041000096
:10022000C84200401C4620BCBE4CCA1B0E5AAEC57C
:100230009D740200002100240027002A002D0030B8
:1002400000330001010000040107010A010000223F
:1002500000250028002B002E003100340002010090
:1002600000050108010B010505050507050808083B
:1002700008020202020A0A08080404040401010137
:10028000010101010103030303030303030407073F
:10029000070C0C0C0C0C0C0C0C02020202060606DD
:1002A00006060606060B0B0B0B0B0B0B0B010210C5
:1002B0002020080810204010204080020102010880
:1002C0000402010102040810204080804020100830
:1002D0000402018004020180402010080402010889
:1002E00004020101020408102040800102040810E9
:1002F00020408000000A0B02090C0D0E08070304C1
:1003000001000000000000000000000000000000EC
:1003100000000000000000000000000000000012CB
:1003200011100000000000000000000000000000AC
:1003300000000000000000000000A120C7271124D9
:100340001FBECFEFD1E2DEBFCDBF00E00CBF13E098
:10035000A0E0B2E0E0E5F7E500E00BBF02C00790E7
:100360000D92A037B107D9F725E0A0E7B3E001C0AF
:100370001D92AE3EB207E1F711E0CEE9D1E000E018
:1003800006C021970109802FFE010E944129CD3925
:10039000D10780E00807A9F70E9412220C94962B3F
:1003A0000C9400008FB7F8948091F3038FBF0895E9
:1003B0008CBD9DBD0895089508952091CA03260F10
:1003C0003327331F21323105ECF420913A04FC012C
:1003D00090E080E0243069F082E00895A091CA03A3
:1003E0002191AC0146555C4FA40FB52FB11D2C9344
:1003F0000196861798F38091CA03680F6093CA0329
:1004000080E0089581E008950895E091F2038091DD
:10041000F103E81730F4F0E0EC50FC4F808190E0FD
:1004200008958FEF9FEF08959091F2038091F1036B
:100430002FEF3FEF981748F4E92FF0E0EC50FC4F16
:10044000208130E09F5F9093F203C901089580916D
:10045000F1039091F203891B990B0895CF92DF92DB
:10046000EF92FF920F931F93CF93DF937C01CB0109
:100470008A0120914004222389F0EB016B01C40E14
:10048000D51ECC15DD0569F06991D701ED91FC9180
:100490000190F081E02DC7011995F3CF642F0E94E0
:1004A000DD01C801DF91CF911F910F91FF90EF9077
:1004B000DF90CF900895CF93DF931F92CDB7DEB733
:1004C0006983209140042223F9F0209163042032B3
:1004D00058F021E030E0FC013383228390E080E09B
:1004E0000F90DF91CF91089580914104E82FF0E0C3
:1004F000EE5BFB4F998190838F5F809341048093E3
:10050000630481E090E0ECCF61E0CE0101960E94AF
:10051000DD01F7CF8150823108F05AC0E82FF0E0BA
:100520008827EA56FD4F8F4F0C944129B602BA0234
:10053000A802AE02B202E802BD02C302C702CD02A7
:10054000D102D502DB02DF02E802E302E902ED029A
:10055000809180008F778093800008958091800043
:100560008F7DF9CF80918000877FF5CF84B58F771D
:1005700084BD089584B58F7DFBCF8091B0008F77C7
:100580008093B00008958091B0008F7DF9CF809165
:1005900090008F77809390000895809190008F7DD8
:1005A000F9CF80919000877FF5CF8091A0008F7761
:1005B0008093A00008958091A0008F7DF9CF809155
:1005C000A000877FF5CF809120018F778093200155
:1005D0000895809120018F7DF9CF80912001877F40
:1005E000F5CF1F93CF93DF93282F30E0F901ED5023
:1005F000FD4F8491F901E355FD4FD491F901E9597B
:10060000FD4FC491CC23A9F0162F81110E948A02BC
:10061000EC2FF0E0EE0FFF1FE35BFD4FA591B491CF
:100620008FB7F894EC91111108C0D095DE23DC93BC
:100630008FBFDF91CF911F910895DE2BF8CF1092DD
:100640003A0481E0809339041092140461E084E15B
:100650000E94F10261E085E10E94F102E9EBF0E025
:1006600080818E7F808380818D7F808388E48093EA
:10067000B80085E48093BC000895CF93DF9391E0A8
:100680009093A9038823B9F0C091B800D091BA0023
:100690008091BC008A7B8093BC0060E084E10E9472
:1006A000F10260E085E10E94F1020E941F03D093F5
:1006B000BA00C093B800DF91CF910895CF93DF9334
:1006C00090E0FC01E355FD4F249189599D4FFC01B9
:1006D00084918823C9F090E0880F991FFC01ED5C9C
:1006E000FD4FA591B491FC01E35BFD4FC591D49101
:1006F00061110DC09FB7F8948C91209582238C9343
:100700008881282328839FBFDF91CF91089562308D
:1007100051F49FB7F8943C91822F809583238C935A
:10072000E8812E2BEFCF8FB7F894EC912E2B2C93E2
:100730008FBFEACF8230910538F0880F991F880F5C
:10074000991F05970197F1F70895AF92BF92CF9245
:10075000DF92EF92FF920F931F93CF93DF93EC0101
:1007600088819981892B89F06EBD0DB407FEFDCF7C
:10077000BEB48B2DDF91CF911F910F91FF90EF9021
:10078000DF90CF90BF90AF9008958885998511E054
:10079000892B09F010E8AA24A394862F812309F05D
:1007A000A12C062F2C813D814E815F8160E271EA90
:1007B00087E090E00E94FC28F22EB02EE12CC22EA1
:1007C000D12CFF2019F0C6010E949A038A85877FE9
:1007D00009F042C08D858F3F89F0902F912381E0F1
:1007E00009F480E08A1551F0EF85F8898F89992303
:1007F00069F19081892B8083AA24A394E989FA89DD
:100800008081998D892B8083FF2019F0C6010E9479
:100810009A038E858F3F39F0EB89FC898081988D12
:10082000892309F0E12AE989FA899081898D8095E7
:10083000892380838E858F3F09F0BE2C888599851A
:10084000892BB9F5110F1111BCCF93CF90818095F1
:1008500089238083A12CD2CFE989FA898081998D5F
:10086000892B8083FF2019F0C6010E949A038D8591
:100870008F3F49F0EF85F8898F89902F9123A9F058
:100880009081892B8083E989FA899081898D80956F
:10089000892380838E858F3F69F2EB89FC89808173
:1008A000988D892339F2E12AC5CF908180958923DB
:1008B000E9CF1695C8CF3FB7F8948091A5039091E2
:1008C000A603A091A703B091A80326B5A89B05C0D5
:1008D0002F3F19F00196A11DB11D3FBFBA2FA92FBF
:1008E000982F8827BC01CD01620F711D811D911DBC
:1008F00042E0660F771F881F991F4A95D1F7089528
:100900008F929F92AF92BF92CF92DF92EF92FF921F
:100910000F931F93CF93DF93D0916304D13208F0EC
:10092000D7C0182FC09162040E945B046B017C0148
:1009300080913A0481116BC082E080933A04109355
:1009400039048FEF8093380410923704D093360423
:10095000A2E4B4E0E6E1F4E080E0D81391C01092A4
:10096000150480911504CC0FC82BC09315048091F9
:100970001404813009F088C0109214040E945B04B2
:100980006B017C01809115048093BB0080913C0435
:1009900090913D04A0913E04B0913F04892B8A2B95
:1009A0008B2BA1F00E945B0400913C0410913D044C
:1009B00020913E0430913F046C197D098E099F09F6
:1009C000061717072807390708F442C08091BC00B2
:1009D00083FDD8CF85EC8093BC000E945B046B0143
:1009E0007C0180913A04823009F450C0809138042F
:1009F0008F3F09F46FC080913804803209F46CC0D5
:100A000080913804803309F469C084E026C0809165
:100A10003C0490913D04A0913E04B0913F04892B89
:100A20008A2B8B2B09F484CF0E945B0480903C04BA
:100A300090903D04A0903E04B0903F046C197D0955
:100A40008E099F0986169706A806B90608F070CF8A
:100A500080913B040E943D0385E010924104109276
:100A6000630410924004DF91CF911F910F91FF908A
:100A7000EF90DF90CF90BF90AF909F908F900895B0
:100A80009D9191938F5F69CF85EEA5CF80913C04B6
:100A900090913D04A0913E04B0913F04892B8A2B94
:100AA0008B2B09F49ECF0E945B0400913C041091B3
:100AB0003D0420913E0430913F046C197D098E095C
:100AC0009F09061717072807390708F08ACFC0CFF4
:100AD00081E0C3CF80E0C1CF82E0BFCF83E0BDCF54
:100AE000CF93DF93EC018B818823A1F0888191E083
:100AF0009093400480936204109241041092630426
:100B000081E00E94800491E0811190E0892FDF91C3
:100B1000CF9108951092F2031092F10310924104C4
:100B2000109263040E941F038BED91E09093EE03FB
:100B30008093ED038CED91E09093F0038093EF03AD
:100B400081E08B83CE010E947005982F8111CECF5A
:100B5000DDCFCF93DF93EA0191E09093400480933F
:100B60006204109241041092630484E694E00E94AF
:100B70005B02688184E694E00E945B0281E00E944F
:100B8000800491E0811190E0892FDF91CF91089549
:100B90001F93CF93DF93EA01122FDC0111968D9101
:100BA0009C91DC01ED91FC910280F381E02D19957F
:100BB000C817D90729F4812F0E94800491E0811180
:100BC00090E0892FDF91CF911F9108958F929F928E
:100BD000AF92BF92CF92DF92EF92FF920F931F934B
:100BE000CF93DF931F921F92CDB7DEB78C01DC014C
:100BF0001F964D935D936D937C9352971A968C91AB
:100C00001A97882309F44FC01C964C93452F562FF2
:100C1000672F7727882309F449C0D8011B964C9386
:100C2000D80116968C91169717969C9117978983E1
:100C30009A83CD90DC901197C114D10409F449C076
:100C40001996EC90F12C97012E5F3F4FF6018481AD
:100C5000958182179307D8F181819281208131E0BB
:100C60003093400420936204109241041092630474
:100C7000E114F104F1F4B801655F7F4F21E042E037
:100C800050E0C6010E94C8050F900F90DF91CF91F0
:100C90001F910F91FF90EF90DF90CF90BF90AF909A
:100CA0009F908F900895F8014387B0CFF801448753
:100CB000B7CFDC01ED91FC910280F381E02DA7011B
:100CC000BE016F5F7F4F1995E816F906A1F280E02B
:100CD000DBCFF801E280F380E114F104C1F3248159
:100CE000358121153105A9F58F778983D8011996AA
:100CF000AC90B12CF70180819181892B39F0028071
:100D0000F381E02D808191810E94D80160E0D701BC
:100D10001B968C910E94F102FE0131964F016F01EA
:100D2000C601881999098A159B05F0F0D8011B9610
:100D30006C91C7010E94A503F8016485C7010E9458
:100D4000A50361E0D7011B968C910E94F10281E01E
:100D50009BCF2230310511F48068C7CF2130310597
:100D600029F68F778064C1CFF60161916F01C701C9
:100D70000E94A503D5CF8F929F92AF92BF92CF9240
:100D8000DF92EF92FF920F931F93CF93DF93D82FB1
:100D9000C62F142F613208F09CC00E945B046B01C7
:100DA0007C0180913A0481116FC081E080933A0404
:100DB000109339049FEF90933804109237049C0FDE
:100DC000909336048093150480911504DD0FD82B81
:100DD000D093150480911404813009F07CC01092E6
:100DE00014040E945B046B017C01809115048093C4
:100DF000BB0080913C0490913D04A0913E04B091D1
:100E00003F04892B8A2B8B2BA1F00E945B0400915D
:100E10003C0410913D0420913E0430913F046C1934
:100E20007D098E099F09061717072807390708F457
:100E30004CC08091BC0083FDD8CF85EC8093BC0072
:100E40000E945B046B017C0180913A04813009F4BB
:100E500044C0809137048C1710F4C0913704E6E148
:100E6000F4E0A4EFB3E080E08C1359C08C2FDF9145
:100E7000CF911F910F91FF90EF90DF90CF90BF9097
:100E8000AF909F908F90089580913C0490913D0485
:100E9000A0913E04B0913F04892B8A2B8B2B09F43F
:100EA00080CF0E945B0480903C0490903D04A09011
:100EB0003E04B0903F046C197D098E099F09861687
:100EC0009706A806B90608F06CCF80913B040E94F3
:100ED0003D03C0E0CBCF85EEB1CF80913C04909133
:100EE0003D04A0913E04B0913F04892B8A2B8B2BAB
:100EF00009F4AACF0E945B0400913C0410913D04C8
:100F000020913E0430913F046C197D098E099F09A0
:100F1000061717072807390708F096CFD6CF919103
:100F20009D938F5FA1CF2FB7F8946091A10370912B
:100F3000A2038091A3039091A4032FBF089581E0A1
:100F400080939E0308950895089508950895AF929B
:100F5000BF92CF92DF92EF92FF920F931F93CF93A6
:100F6000DF936C017B018B01040F151FEB015E0108
:100F7000AE18BF08C017D10759F06991D601ED919D
:100F8000FC910190F081E02DC6011995892B79F72C
:100F9000C501DF91CF911F910F91FF90EF90DF90EE
:100FA000CF90BF90AF90089590E080E00895FC014D
:100FB000538D448D252F30E0842F90E0821B930BBE
:100FC000541710F0CF96089501970895FC01918D64
:100FD000828D981761F0A28DAE0FBF2FB11D5D9667
:100FE0008C91928D9F5F9F73928F90E008958FEF09
:100FF0009FEF0895FC01918D828D981731F0828DBD
:10100000E80FF11D858D90E008958FEF9FEF089513
:10101000FC01918D228D892F90E0805C9F4F821B77
:1010200091098F739927089580E794E00E9408083A
:1010300021E0892B09F420E0822F0895FC01A48D82
:10104000A80FB92FB11DA35ABF4F2C91848D90E0EA
:1010500001968F739927848FA689B7892C93A089CD
:10106000B1898C91837080648C93938D848D981357
:1010700006C00288F389E02D80818F7D80830895EA
:10108000EF92FF920F931F93CF93DF93EC0181E0D8
:10109000888F9B8D8C8D98131AC0E889F98980817F
:1010A00085FF15C09FB7F894EE89FF896083E889B2
:1010B000F98980818370806480839FBF81E090E0A4
:1010C000DF91CF911F910F91FF90EF900895F62E31
:1010D0000B8D10E00F5F1F4F0F731127E02E8C8DCB
:1010E0008E110CC00FB607FCFACFE889F989808110
:1010F00085FFF5CFCE010E941E08F1CFEB8DEC0FDE
:10110000FD2FF11DE35AFF4FF0829FB7F8940B8F2C
:10111000EA89FB8980818062CFCFCF93DF93EC0196
:10112000888D8823B9F0AA89BB89E889F9898C91CF
:1011300085FD03C0808186FD0DC00FB607FCF7CF8B
:101140008C9185FFF2CF808185FFEDCFCE010E948B
:101150001E08E9CFDF91CF91089581E080939F032E
:1011600008950E941408882319F081E080939F035A
:1011700080E090E0892B49F080E090E0892B29F015
:101180000E94000081110E94000080E090E0892B05
:1011900049F080E090E0892B29F00E940000811145
:1011A0000E94000080E090E0892B49F080E090E010
:1011B000892B29F00E94000081110C9400000895F1
:1011C0000F931F93CF93DF93EC010E9493070E813F
:1011D0001F81288539850617170728073907B8F5AD
:1011E0008A858823A1F18B859C85AD85BE85892B59
:1011F0008A2B8B2B61F1E881F98119958B859C8570
:10120000AD85BE85181619061A061B0684F48F854F
:101210009889A989BA890197A109B1098F87988B03
:10122000A98BBA8B892B8A2B8B2B09F41A860E94E7
:1012300093070A811B812C813D81DC01CB01800F4A
:10124000911FA21FB31F8E839F83A887B987DF9149
:10125000CF911F910F9108958F929F92AF92BF925D
:10126000CF92DF92EF92FF920F931F93CF93DF9372
:10127000EC016A017B0120E030E04FE753E4CB0151
:10128000B6010E9433284B015C0120E030E0A90147
:101290000E945E2A18168CF5C501B4010E94282A06
:1012A0008B01B98020E030E0A901C701B6010E949E
:1012B0005E2A60E018160CF061E08B2D0E94F102AE
:1012C0000F3F110509F0ECF41127C88161E08C2F64
:1012D0000E945E0301151105B9F460E08C2FDF91C7
:1012E000CF911F910F91FF90EF90DF90CF90BF9023
:1012F000AF909F908F900C94F102C501B40190586B
:10130000CDCF0FEF10E0E1CF0F3F110511F461E0F9
:10131000E5CFEC2FF0E0ED50FD4FE491E150E231EC
:1013200008F0BCC0F0E08827E756F64F8F4F0C94CA
:101330004129AB09BC09C109CB09D5094E0ADF090E
:10134000E709EF09F909030A0D0A1C0A260A4E0AE1
:10135000300A3A0A440A84B5806884BD07BDDF912B
:10136000CF911F910F91FF90EF90DF90CF90BF90A2
:10137000AF909F908F90089584B5806284BD08BD22
:10138000EECF809180008068809380001093890068
:1013900000938800E4CF8091800080628093800079
:1013A00010938B0000938A00DACF809180008860D0
:1013B0008093800010938D0000938C00D0CF80919B
:1013C000B00080688093B0000093B300C8CF8091D4
:1013D000B00080628093B0000093B400C0CF8091D1
:1013E000900080688093900010939900009398007B
:1013F000B6CF8091900080628093900010939B0004
:1014000000939A00ACCF8091900088608093900008
:1014100010939D0000939C00A2CF8091A000806853
:101420008093A0008091A0008F7B8093A0001093F8
:10143000A9000093A80093CF8091A00080628093C0
:10144000A0001093AB000093AA0089CF8091A00068
:1014500088608093A0001093AD000093AC007FCF14
:1014600080912001806880932001109329010093CE
:10147000280175CF80912001806280932001109314
:101480002B0100932A016BCF80912001886080930B
:10149000200110932D0100932C0161CF003811051C
:1014A0000CF035CF1ACF8EBD00000DB407FEFDCF76
:1014B0008EB50895FA01309751F0248120782C6080
:1014C0002483608371838283938381E0089580E025
:1014D0000895CF93DF93EC0188819981DC01ED9130
:1014E000FC910190F081E02D19952A813B81820FBA
:1014F000931F9B838A83DF91CF910895CF93DF93CE
:10150000EC0188819981DC01ED91FC910280F381ED
:10151000E02D19952A813B81820F931F9B838A833B
:10152000DF91CF9108958F929F92AF92BF92CF9209
:10153000DF92EF92FF920F931F93CF93DF93CDB77C
:10154000DEB766970FB6F894DEBF0FBECDBF6C0155
:101550008E01095E1F4F78018AE0882E912CA12C04
:10156000B12CCB01BA01A50194010E94FC28942F53
:10157000852F605DF80162938F01A901692F782F93
:10158000411551056105710561F7A7014E1B5F0B00
:10159000BF01C6010E947E0A66960FB6F894DEBFB0
:1015A0000FBECDBFDF91CF911F910F91FF90EF90B4
:1015B000DF90CF90BF90AF909F908F900895EF9263
:1015C000FF920F931F93CF93DF93EC017B0162E2B5
:1015D0000E94690A8701F80161918F01662391F0E9
:1015E000EFE4F2E0F280FF2049F032968181681347
:1015F000F9CF6CE5CE010E94690A6F2DCE010E94E1
:10160000690AE9CF62E2CE01DF91CF911F910F917C
:10161000FF90EF900C94690A80339CF08A3324F099
:101620008F3524F08B3724F481E0089581344CF019
:101630008B35D4F393ED980F81E09230B0F380E0D6
:1016400008958B32B9F7F0CFCF92DF92EF92FF92ED
:101650000F931F93CF93DF93EC018C85811130C0E2
:1016600009851A850E949307D80118966D937D937A
:101670008D939C931B97D801ED91FC910284F38587
:10168000E02DC801199597FF25C00E949307F80126
:10169000C084D184E284F3846C197D098E099F098A
:1016A000C480D580E680F7806C157D058E059F058A
:1016B00010F38FEF9FEF97FD80E08B8781E08C87A1
:1016C0008B85DF91CF911F910F91FF90EF90DF906D
:1016D000CF9008959927EFCF1F93CF93DF93EC011D
:1016E000162F0E94240B811306C01C8681E0DF9117
:1016F000CF911F91089580E0FACFCF93DF93EC0153
:10170000CE010E94240B8B303CF489304CF48823AA
:1017100049F081E0888710C08D3011F08032C9F720
:101720001C86EECF888581110AC081E090E0C15B04
:10173000DF4F9983888380E0DF91CF91089582E025
:1017400090E0F5CFFC010E96918380839383828392
:101750008C509E4F958384839783868310868585DE
:101760008078858708950895CF93DF93209198031B
:1017700030E0F901ED50FD4F8491F901E355FD4F43
:10178000D491F901E959FD4FC491CC2321F1811184
:101790000E948A02EC2FF0E0EE0FFF1FE053FE4F95
:1017A000A591B491EC91ED23B1F0809199039091C2
:1017B0009A03A0919B03B0919C030196A11DB11DBA
:1017C0008093990390939A03A0939B03B0939C03F7
:1017D000DF91CF9108958091990390919A03A09100
:1017E0009B03B0919C030197A109B109E9CFFC01CA
:1017F000828193810097C1F0248135814681578190
:101800002417350740F0138212820190F081E02DF9
:1018100081E080870895A9014F5F5F4F558344831E
:10182000820F931FFC01608308959F92AF92BF9235
:10183000CF92DF92EF92FF920F931F93CF93DF939C
:1018400000D01F921F92CDB7DEB78C010E94240BEF
:10185000D82EF8011486F12CE12C70EFC72EC801A8
:101860000E94240BF8011486D81609F4C1C0811116
:1018700019C0F801E15BFF4F82E090E09183808323
:1018800080E00F900F900F900F900F90DF91CF910D
:101890001F910F91FF90EF90DF90CF90BF90AF908E
:1018A0009F9008958C3509F09EC0C8010E94240BBA
:1018B0008823F9F2EFE4F2E0853709F088C0F801F7
:1018C000148664E0962EB12CA12CC8010E94240B32
:1018D000882379F281344CF48053803148F0F80148
:1018E000E15BFF4F83E090E0C9CF8F7D8753F5CF59
:1018F00054E0AA0CBB1C5A95E1F7A82AF8011486FB
:101900009A949110E2CFC501985D8115944020F41E
:10191000750123E0F222A3CFC5019C5D811594409F
:1019200008F5F3E0BF22C701982F8827990F990F78
:101930008A299B29B0E0A0E0119619828038910590
:10194000A105B10598F48A835E0123E0A20EB11CC3
:10195000F50162915F01662309F481CFC8010E94FD
:10196000F70BF6CFC501B0E0A0E0E7CF282F2F732B
:1019700020682A8336E0B695A795979587953A957E
:10198000D1F78032910538F4806C8B835E0184E05E
:10199000A80EB11CDDCF282F2F7320682B8326E0E3
:1019A000969587952A95E1F78031910538F4806EF8
:1019B0008C835E01E5E0AE0EB11CCACF80688C83DB
:1019C000CD825E01F6E0AF0EB11CC2CF329690819F
:1019D000992309F484CF8913F9CF8181882309F4ED
:1019E0007ECFF8011486682FC8010E94F70B37CF0D
:1019F00060E0C8010E94F70BF80182819381892B76
:101A000029F4E15BFF4F84E090E038CF81E039CFEB
:101A1000EF92FF920F931F93CF93DF93DC01ED9032
:101A2000FC90E7012A813B81E881F981E217F30705
:101A300080F4B901DF01EB014991BE018D010F5F17
:101A40001F4F5C91451318C0D8014111F4CF309756
:101A500059F4FC0184819581820F931FD70113965D
:101A60009C938E931297F901CF01DF91CF911F9133
:101A70000F91FF90EF900895FD014191DF01411119
:101A8000FBCFD4CF4F925F926F927F928F929F92B3
:101A9000AF92BF92CF92DF92EF92FF920F931F937C
:101AA000CF93DF93EC018B0188818B32C9F18D32AA
:101AB000C1F52196FF24F394888190ED980F9A3018
:101AC00018F08E3209F04DC160E070E0CB01FE01EC
:101AD0002191A0ED8A2E820E39E0381520F16A3965
:101AE00049E97407840749E1940738F5AAE0B0E0B2
:101AF0009B01AC010E94F128912CB12CA12C240156
:101B000035014094509460947094461657066806C8
:101B1000790698F0680D791D8A1D9B1DEF01D7CFBE
:101B20002196F12CC9CF211108C0FF20F1F16130BD
:101B30007105810550E89507A0F0E12CEAE08E2EB2
:101B4000912CA12CB12C61157105F0E88F0791053E
:101B5000C0F1A50194010E94FC28CA01B901E394D7
:101B6000F2CFF801248120782A6024839B01AC0104
:101B700088279927DC01821B930BA40BB50B80836C
:101B80009183A283B3838F2DDF91CF911F910F910A
:101B9000FF90EF90DF90CF90BF90AF909F908F908D
:101BA0007F906F905F904F900895F8012481207886
:101BB000286024836083718382839383FF24F3945A
:101BC000E2CFFE01299130ED320F3A3010F4E39468
:101BD000F8CF2E32F1F4EF012196FE0121962081FB
:101BE00050EDD52ED20E29E02D1598F06C3C3CEC32
:101BF00073073CE08307910580F7AAE0B0E09B0102
:101C0000AC010E94F1286D0D711D811D911DEA949A
:101C1000E4CF20812F7DD0E0C0E0253409F05DC005
:101C200021812D32D9F53296CC24C394DF01D0E046
:101C3000C0E02E2D0E2C000C330B4AE0B42EFD011B
:101C4000DD9040ED4D0D4A3008F042C0BC9EA00131
:101C5000BD9E500D1124CD2DDD0CDD0BE097C40F82
:101C6000D51FAE01420F531F4732510544F3F8010F
:101C70008481CC20D1F040E050E060E070E8F110C9
:101C800003C040E050E0BA0180788C60F8018483A2
:101C90004083518362837383FC2C75CF2B3219F000
:101CA0003196C12CC3CF3296FCCF40E050E060E8C3
:101CB0007FEFF11004C040E050E060E87FE78078FB
:101CC0008C60F8018483408351836283738376CF71
:101CD000CC2019F0D195C195D1092081211141C0A5
:101CE000CE0DD11DE7FCDA950E94D2271C161D06E9
:101CF00004F5E12CC0FF0CC024E0E29EF0011124A9
:101D0000E65EFD4F25913591459154910E9433280F
:101D1000D595C795E394209769F7F1109058F8018D
:101D2000248120782C602483608371838283938351
:101D300045CFD195C195D109E12C209771F3C0FF12
:101D40000CC044E0E49EF0011124E651FE4F2591C1
:101D50003591459154910E943328D595C795E394C8
:101D6000ECCFF12C10CFCF93DF9300D01F921F92B6
:101D7000CDB7DEB7009741F0FC0184818F778630C4
:101D800091F030F4843020F560E070E0CB0111C0B8
:101D90008A30B9F08C3049F18830B1F760817181B7
:101DA0008281938104C0608170E090E080E00E94B5
:101DB000D2270F900F900F900F900F90DF91CF913F
:101DC000089560817181828193810E94D427F1CF2F
:101DD000808191811D82BE016F5F7F4F0E94420D05
:101DE000CE0101960E94B30EE4CF608171818281A1
:101DF0009381DFCFCF93DF93DC01EB01EC81FD8199
:101E00008A819B810896E817F90740F481E088876A
:101E1000F0E0E0E0CF01DF91CF9108953897FD83A6
:101E2000EC833097B9F31296CD91DC9113972097FC
:101E300091F0CF018C1B9D0B23E0959587952A95FA
:101E4000E1F78D831396FC93EE931297158214821B
:101E500017821682DFCF1196FC93EE93F3CF009793
:101E600039F0FC0194819F7781E019F080E00895BA
:101E700081E00895FC01248126FF12C080819181B8
:101E8000009781F06150710968F0FC0125812223DF
:101E900039F0F8E02F0290011124820F931FF2CF46
:101EA00090E080E00895FC012581222339F0F8E0DC
:101EB0002F0290011124820F931F089590E080E07B
:101EC00008956F927F928F929F92AF92BF92CF921E
:101ED000DF92EF92FF920F931F93CF93DF931F92A6
:101EE0001F92CDB7DEB78C016B01DC0116968C9189
:101EF000169717969C91179789839A83ED90FC907B
:101F00001197E114F10409F461C019964C9150E065
:101F1000F701848195818417950708F4ABC080810F
:101F200091E09093400480936204109241041092D7
:101F3000630420E0BE016F5F7F4FC7010E94C805A8
:101F4000882309F497C0D70114968D919C91159719
:101F5000029708F48FC041E062E08C910E94BB06BA
:101F60001092F2038093F103823009F083C0F701ED
:101F700081819281DC01ED91FC910284F385E02D59
:101F80001995F8018387D70111968D919C91DC01F9
:101F9000ED91FC910284F385E02D1995F801848779
:101FA000D8011A968C911A97811176C01C968C9143
:101FB0001C9790E0982F8827F601918380831B96C9
:101FC0002C91822B9183808381E055C01296ED90F5
:101FD000FC901397E114F10409F44CC014962D9170
:101FE0003C9121153105A9F580688983F801618448
:101FF000712CD7018D919C911197892B39F01296F4
:10200000ED91FC91808191810E94D80160E0F701FF
:1020100083850E94F102CE0101964C015C01C5014D
:102020008819990986159705F0F06FEFC7010E948E
:10203000A503D8011B968C936FEFC7010E94A503DF
:10204000F801848761E0D7011B968C910E94F10210
:10205000A7CF2230310511F48F77C7CF213031055A
:1020600029F6806CC2CFF50161915F01C7010E9422
:10207000A503D5CF80E00F900F90DF91CF911F91F6
:102080000F91FF90EF90DF90CF90BF90AF909F9017
:102090008F907F906F9008951B968C911B9790E086
:1020A000982F8827F601918380831C962C9189CFE5
:1020B0002F923F924F925F926F927F928F929F9258
:1020C000AF92BF92CF92DF92EF92FF920F931F9346
:1020D000CF93DF9300D01F921F92CDB7DEB7B82EFB
:1020E000962E4D8319010E9493076B017C018D8010
:1020F00019821C82282D30E03B832A832801712C11
:10210000612C81E080934004B092620410924104FB
:1021100010926304692D84E694E00E945B0281E0E2
:102120000E94800491E09093400410924104109228
:10213000630441E0682D8B2D0E94BB06A82E1092EF
:10214000F2038093F1038091F203A816E1F00115E8
:10215000110571F484E694E00E941402F1012C81CF
:10216000E20FF11D27FDFA9580832F5F2C83EBCFC3
:102170000E9493076C197D098E099F0964157505E6
:102180008605970538F381E00E94800489813D81AE
:10219000830F831A91E09983831708F4B2CF011556
:1021A0001105C1F00E9493076C197D098E099F09E2
:1021B00030E020E0601771078207930758F02C8108
:1021C000822F220F990B2A813B818217930714F4E7
:1021D0003FEF3C838C810F900F900F900F900F90EA
:1021E000DF91CF911F910F91FF90EF90DF90CF90F3
:1021F000BF90AF909F908F907F906F905F904F9027
:102200003F902F9008950F931F93CF93DF93CCEAC5
:10221000D5E008EE13E02DEA35E042E06BE388817B
:102220000E94581089819A81982789279827DF91E1
:10223000CF911F910F910895BF92CF92DF92EF92AD
:10224000FF920F931F93CF93DF931F921F92CDB7EF
:10225000DEB7F82EE62EC42EB22ED02E08EE13E0F6
:102260009E012E5F3F4F41E00E945810882399F154
:102270008C2D8B19990BAC014F5F5F4F81E090E083
:1022800002C0880F991FBA94E2F70197042E01C08B
:10229000880F0A94EAF70D2D01C0000F4A95EAF75E
:1022A000982F90952A8192238023892B8A83898372
:1022B000AE014F5F5F4F6E2D8F2D0E94A9050F90CD
:1022C0000F90DF91CF911F910F91FF90EF90DF90D2
:1022D000CF90BF90089580E0F2CF40E050E0BA0187
:1022E00086ED95E00E942C0940E050E060E070E847
:1022F00088ED95E00E942C091092540510929003ED
:102300000895FC0101900020E9F73197AF01481BC7
:10231000590BBC0180E794E00C94A7078F929F9221
:10232000AF92BF920F931F93CF93DF93CDB7DEB7DA
:10233000A1970FB6F894DEBF0FBECDBF19A24230F1
:1023400008F44AE08E010F5D1F4F842E912CB12CB2
:10235000A12CA50194010E94FC28E62FB901CA0115
:10236000EA30F4F4E05DD801EE938D01232B242BA9
:10237000252B79F790E080E0109719F0CD010E94AD
:102380008111A1960FB6F894DEBF0FBECDBFDF91CD
:10239000CF911F910F91BF90AF909F908F90089514
:1023A000E95CE1CFFB0101900020E9F73197AF0133
:1023B000461B570B0C947E0A2F923F924F925F92CE
:1023C0006F927F928F929F92AF92BF92CF92DF9245
:1023D000EF92FF920F931F93CF93DF93CDB7DEB7AA
:1023E0006C970FB6F894DEBF0FBECDBF8C011B01FA
:1023F000DC0114968C9114978F77863009F474C29F
:1024000078F48230B0F0843008F04CC212964D91CE
:102410005C9113976D917C91C1010E947E0A26C246
:102420008C3069F160F4883009F459C28A3009F4BB
:102430003FC260E672E0C1010E94D211E5C1803264
:1024400009F4ECC18034A9F76BE5C1010E94690A67
:10245000F801008111810115110509F4DAC1B101FA
:10246000C8010E94DC11C8010E94530F8C01892B06
:1024700009F4CFC16CE2C1010E94690AECCFF801F6
:10248000C080D180E280F380A7019601C701B60128
:102490000E94CD278111CDCF20E030E0A901C701F6
:1024A000B6010E94CD27882379F0A7019601C701C4
:1024B000B6010E944A299B01AC01C701B6010E94E6
:1024C000CD27882309F4B5CF20E030E0A901C7016A
:1024D000B6010E94CD2787FF08C06DE2C1010E94AE
:1024E000690AF7FAF094F7F8F09420E836E948E141
:1024F0005BE4C701B6010E945E2A87FD81C074E1DA
:10250000A72EB12C00E210E0188E1F8AF501E65EBE
:10251000FD4F2591359145915491C701B6010E9417
:102520005E2A87FD13C0F501E651FE4F25913591D6
:1025300045915491C701B6010E9433286B017C017B
:102540002F89388D200F311F388F2F8B15950795C8
:1025500034E0A31AB1088CEFA8168FEFB806B1F6D5
:1025600055245A9420E030E0A901C701B6010E9429
:102570005E2A18160CF04BC02CEA35EC47E257E304
:10258000C701B6010E94CD2718160CF440C0A52D36
:10259000B4E0AB02C0011124912C812CFC01EE5F50
:1025A000FD4F3F019C01265E3D4F59013FEF531601
:1025B00071F1F301E80DF91D659175918591949183
:1025C000A70196010E945E2A18169CF4F501E80DF9
:1025D000F91D2591359145915491C701B6010E948D
:1025E00033286B017C018F89988D801B910B988F0C
:1025F0008F8B159507955A9494E0891A9108D6CF38
:1026000000E210E055E0552E188E1F8AABCFC701AF
:10261000B6010E942F2A4B015C012B013C0106E010
:1026200080E492E4AFE0B0E0898F9A8FAB8FBC8FEB
:10263000102F01509AE04916510461047104C8F04A
:10264000698D7A8D8B8D9C8D2AE030E040E050E0E2
:102650000E94FC28298F3A8F4B8F5C8FC301B201F7
:102660002AE030E040E050E00E94FC2829013A01D5
:10267000DFCFC501B4010E94D2279B01AC01C70185
:10268000B6010E9449296B017C01698D7A8D8B8D81
:102690009C8D0E94D2279B01AC01C701B6010E940C
:1026A00033282B013C010E942F2A6B017C010E94E0
:1026B000D2279B01AC01C301B2010E9449299B01B1
:1026C000AC010E944A290E942F2AC60ED71EE81E7E
:1026D000F91E898D9A8DAB8DBC8DC816D906EA0678
:1026E000FB06D8F09FEF891A990AA90AB90AAF899F
:1026F000B88DAB2B39F1BAE08B169104A104B1046B
:1027000008F1EF89F88D3196F88FEF8BC12CD12C21
:102710007601812C912C540183942AE0422E512C75
:10272000612C712CC701B601A30192010E94FC2803
:10273000672B682B692B51F4111644F469017A0157
:102740001150F0CFC12CD12C7601E7CFB501A401F7
:10275000C1010E94930A112371F14E01F1E18F0E24
:10276000911C012F54019AE0492E512C612C712C9F
:10277000015068F0C701B601A30192010E94FC2834
:10278000605DD4016E934D0169017A01F1CF812F13
:1027900090E0BC0160957095F501E81BF90B31974D
:1027A0008EE2808344275527461B570B6A0D7B1DFD
:1027B000C1010E947E0AEF89F88DEF2B29F165E6B1
:1027C000C1010E94690A0F89188D17FF07C06DE2C9
:1027D000C1010E94690A119501951109FE017796C0
:1027E0009F018AE0E82EF12CC801B7010E942D2933
:1027F000805D82938B01672BB9F7A9014E1B5F0B9C
:10280000BF01C1010E947E0AD10112968D919C9157
:1028100030C06DE5C1010E94690AF6CF6BE7C101C6
:102820000E94690AF8010081118101151105D1F09A
:10283000D80116966D917C91C1010E94DF0A6AE36E
:10284000C1010E94690AB101C8010E94DC11C801DE
:102850000E94530F8C01892B29F06CE2C1010E9468
:10286000690AE3CF6DE7C1010E94690AF101828123
:1028700093816C960FB6F894DEBF0FBECDBFDF918B
:10288000CF911F910F91FF90EF90DF90CF90BF906D
:10289000AF909F908F907F906F905F904F903F9000
:1028A0002F9008956D917C91C1010E94DF0ADECFC7
:1028B000CD90DD90ED90FC90B701A601F7FE0BC026
:1028C0006DE2C1010E94690A44275527BA014C19DB
:1028D0005D096E097F09C1010E94930AC7CF4D911E
:1028E0005D916D917C91F7CF8C9165E672E08111DD
:1028F00002C06AE672E0C1010E94D211B7CF85ED35
:102900008093BC0080913C0490913D04A0913E04D2
:10291000B0913F040796A11DB11D23E0B695A79580
:10292000979587952A95D1F72091BC0024FD03C087
:1029300010923A04089540913C0450913D046091F6
:102940003E0470913F04452B462B472B69F30097BB
:10295000A105B10541F025E32A95F1F700000197A3
:10296000A109B109E1CF80913B040C943D030F9381
:102970001F93CF93DF938B01EC01892BA1F06E8124
:102980007F816017710779F00115110541F061151C
:10299000710529F0C8010E948D2B892B21F0CE01F1
:1029A0000E94530FE9CFCE01DF91CF911F910F917C
:1029B00008959F92AF92BF92CF92DF92EF92FF92D3
:1029C0000F931F93CF93DF93EC018B01E42E0E94B2
:1029D0007D0BF82E81110EC0F12C8F2DDF91CF9140
:1029E0001F910F91FF90EF90DF90CF90BF90AF902D
:1029F0009F900895CE010E94240B873209F415C1DF
:102A000014F5823209F411C1CE010E94240BB82EB4
:102A10006E01FFE0CF0ED11CE12C9C2CAD2C8B2D38
:102A20000E940C0B882309F422C18FE3E81609F4F5
:102A30001EC11C86E394F601B1926F01CE010E9483
:102A4000240BB82EECCF8B3509F455C08B37E1F64B
:102A5000F8018481807880628483118210821382DD
:102A60001282EE2009F452C01C86CE010E947D0B1A
:102A7000882309F4B1CF6DE7CE010E946C0B811160
:102A8000ACCFEA94E881F981828193819B838A8328
:102A90008481958122813381821B930B9F838E8356
:102AA0001D821C82CE010E94240B873209F46EC065
:102AB000823209F46BC0CE010E94240BD82E0E94F2
:102AC0000C0B882309F45DC01C866D2DCE010E947D
:102AD000F70BCE010E94240BD82E0E940C0B811103
:102AE000F3CF60E0CE010E94F70B8A819B81892B96
:102AF00009F052C027C0F801848180788064848303
:102B00001182108213821282E11007C0C15BDF4F75
:102B100085E090E0998388835FCF1C86CE010E9478
:102B20007D0B882309F458CF6DE5CE010E946C0B14
:102B3000811153CFEA946D857E85C8010E94FA0EFB
:102B4000009729F4C15BDF4F84E090E0E3CF4E2D86
:102B5000BC01CE010E94D914882309F43DCFCE01D7
:102B60000E947D0B882309F437CF6DE5CE010E94CA
:102B70006C0B811132CF6CE2CE010E946C0B811183
:102B8000DACFC15BDF4F83E090E0C4CFCE010E947B
:102B9000150C882309F420CFCE010E947D0B8823D9
:102BA00009F41ACF6AE3CE010E946C0B882349F323
:102BB0006A817B81F801808191810E94B714BC01F8
:102BC000892B99F4CE010E94080D6C016D857E85DC
:102BD000C8010E94FA0EFC01892B09F4B3CF84814D
:102BE00080688483D782C682BF014E2DCE010E94A9
:102BF000D914882309F4F0CECE010E947D0B8823DE
:102C000009F4EACE6DE7CE010E946C0B8111E5CE8E
:102C10006CE2CE010E946C0B882309F4B2CFCE0186
:102C20000E947D0B81112ECFD7CEE881F981828160
:102C300093819B838A838481958122813381821B46
:102C4000930B9F838E831D821C82CE010E94150CE4
:102C5000F82E882309F4C0CECE010E94080DF80199
:102C6000248120782560248391838083B6CEFE0161
:102C7000EE0DF11D17868F85843781F4F80184816C
:102C800080788660848381E08083F4E0EF1609F425
:102C9000A4CEC15BDF4F82E090E03CCF863641F4AA
:102CA000F80184818078866084831082F5E0EECF1D
:102CB0008E3621F484E0E812ECCF8FCEB801892D56
:102CC0009A2D0E94420D882309F45BCF86CEFC0129
:102CD000248125FF04C0808191810C94B71490E079
:102CE00080E008958F929F92AF92BF92CF92DF9231
:102CF000EF92FF920F931F93CF93DF93CDB7DEB781
:102D0000C356D2400FB6F894DEBF0FBECDBF8E01C2
:102D10000F5F1F4FC8010E94A20B89819A819C837B
:102D20008B838F8198859E838D8319868E8580788D
:102D30008E87C45ADD4F19830883CC55D24088E072
:102D4000FE01E45AFD4FDE01AC5ABD4F01900D92D9
:102D50008A95E1F788E0FE01EC5AFD4FDE01AD5F98
:102D6000BD4F01900D928A95E1F7C55FDD4F188246
:102D7000CB50D24080E794E0C45FDD4F99838883D5
:102D8000CC50D240C15FDD4F1882CF50D240C05FDF
:102D9000DD4F19830883C051D240CE5ADD4F1982CE
:102DA0001882C255D2404AE0BE01665F7F4FCE0115
:102DB0008D5F9D4F0E94D914CE5ADD4F0881198135
:102DC000C255D24001151105A9F5C25FDD4F8881BA
:102DD000CE50D240882371F18E8583FF2BC0109294
:102DE0009F0303E010E089E792E00E948111000F49
:102DF000111FF801E15EFD4F80819181009711F074
:102E00000E94811180E992E00E948111CD59DD4F2D
:102E10000FB6F894DEBF0FBECDBFDF91CF911F91EB
:102E20000F91FF90EF90DF90CF90BF90AF909F9069
:102E30008F90089510929F0301151105A1F660E788
:102E400072E0CE010A960E9467160E942F0F811130
:102E500010C060E772E0CE010A960E9467160E94D9
:102E6000B30E6093910370939203809393039093B6
:102E7000940363E972E0CE010A960E9467160E94ED
:102E80002F0F81110EC063E972E0CE010A960E94F5
:102E900067160E94B30E0E942F2A709396036093C8
:102EA00095036DE972E0CE010A960E9467160E94B2
:102EB0002F0F182F81112AC06DE972E0CE010A96FA
:102EC0000E946716FC01892BF9F094819F77983056
:102ED00009F4D6C030F49923B9F09630A1F011E08E
:102EE00013C09A3009F4CCC09C30C9F711E020E03F
:102EF00030E0A90160817181828193810E94CD2798
:102F0000811102C0C7C0108110939D0363EA72E073
:102F1000CE010A960E9467160E942F0F811176CF6C
:102F20001092860563EA72E0CE010A960E94671647
:102F3000009721F062E070E00E943A0F0E94B30E09
:102F40006B017C0163EA72E0CE010A960E9467166B
:102F5000009721F061E070E00E943A0F0E94B30EEA
:102F60004B015C0163EA72E0CE010A960E9467168B
:102F7000009721F070E060E00E943A0F0E94B30ECB
:102F8000609370057093710580937205909373053B
:102F90008092740590927505A0927605B09277059F
:102FA000C0927805D0927905E0927A05F0927B057F
:102FB00063EA72E0CE010A960E946716009721F03C
:102FC00063E070E00E943A0F0E94B30E60939C058C
:102FD00070939D0580939E0590939F0563EA72E030
:102FE000CE010A960E946716009721F064E070E017
:102FF0000E943A0F0E94B30E60938205709383057E
:10300000809384059093850580917C0590917D0542
:10301000892B09F4FBCE80917E0590917F05892B49
:1030200009F4F4CE81E0809386050E949307009115
:103030008C0510918D0520918E0530918F05DC0156
:10304000CB01800F911FA21FB31F80939405909313
:103050009505A0939605B093970510928705109259
:10306000A4051092A5051092A6051092A70510922E
:10307000A8051092A9051092AA051092AB05C6CE1C
:1030800011E080819181A281B381892B8A2B8B2BC6
:1030900009F03ACF10E038CFEF92FF920F931F93D1
:1030A000CF93DF93EC018C81982F9F7739F4807850
:1030B00080628C83198218821B821A828C8185FF20
:1030C0001EC061157105D9F07A018B018881998143
:1030D0000E94B714009761F4B701CE010E94FA0E66
:1030E000009731F0FC0124812F7724831783068316
:1030F000DF91CF911F910F91FF90EF90089590E095
:1031000080E0F6CF8F929F92AF92BF92CF92DF92E4
:10311000EF92FF920F931F93CF93DF93CDB7DEB75C
:10312000CA52D2400FB6F894DEBF0FBECDBFCE015B
:1031300001960E94A20B0E9493076B017C01AE01D5
:103140004F5F5F4F6BEA72E0CE010A960E944C1807
:10315000FC01892B41F09481907898609483C0821F
:10316000D182E282F38280917B00877F80937B0013
:1031700085E480937C0080917A00806480937A005B
:1031800080917A0086FDFCCF009178001091790043
:10319000AE014F5F5F4F60EB72E0CE010A960E9476
:1031A0004C18FC01892B69F0948190789A60948383
:1031B000A801052E000C660B770B408351836283B8
:1031C0007383C0909903D0909A03E0909B03F09092
:1031D0009C03AE014F5F5F4F67EB72E0CE010A9632
:1031E0000E944C18FC01892B41F0948190789A60E0
:1031F0009483C082D182E282F382C0908205D09013
:103200008305E0908405F0908505AE014F5F5F4F28
:103210006EEB72E0CE010A960E944C18AC01C70119
:10322000B6010E945A0AAE014F5F5F4F63EC72E035
:10323000CE010A960E944C18AC0160E070E0CB0110
:103240000E945A0A8091C6059091C705CE5EDD4F57
:10325000188219821A821B82C251D240CD5FDD4F83
:1032600099838883C350D240CB5FDD4F1982188287
:10327000C550D24011E0C45FDD4F1883CC50D2401E
:1032800082E090E0C75FDD4F99838883C950D240C8
:10329000C35FDD4F1883CD50D24002E0C55FDD4FE4
:1032A0000883CB50D240BE016A5E7D4FCE018D5F58
:1032B0009D4F0E94610F8093C805CA5EDD4F6881F3
:1032C0007981C651D24083E0769567958A95E1F77A
:1032D0007B01EE0CFF1CEE0CFF1C8091C60590914B
:1032E000C705CE5EDD4F188219821A821B82C25139
:1032F000D240CD5FDD4F99838883C350D240CB5FEE
:10330000DD4F19821882C550D240C45FDD4F18834B
:10331000CC50D24081E090E0C75FDD4F9983888335
:10332000C950D240C35FDD4F1883CD50D240C55F36
:10333000DD4F0883CB50D240BE016A5E7D4FCE0187
:103340008D5F9D4F0E94610F8093C805CA5EDD4F5F
:1033500068817981C651D240072E000C880B990BE9
:103360000E94D4272AE037ED43E25CE30E94332831
:1033700020E030E04AE754E40E94B6294B015C01AA
:10338000B701FF0C880B990B0E94D4272FE632E17E
:1033900043E85AE30E9433289B01AC01C501B40104
:1033A0000E944A296B017C01AE014F5F5F4F60EDC7
:1033B00072E0CE010A960E944C18AC01C701B6011A
:1033C0000E945A0A8091C6059091C705CB5DDD4FDA
:1033D000188219821A821B82C552D240CA5EDD4F02
:1033E00099838883C651D240C85EDD4F1982188206
:1033F000C851D240C15EDD4F1883CF51D24085E025
:1034000090E0C45EDD4F99838883CC51D240C05E8A
:10341000DD4F1883C052D240C25EDD4F0883CE51CB
:10342000D2404091CA055091CB056091CC05709176
:10343000CD05CE018A5E9D4F0E94E6058091C605AE
:103440009091C705CE5EDD4F188219821A821B82C9
:10345000C251D240CD5FDD4F99838883C350D240A3
:10346000CB5FDD4F19821882C550D240C45FDD4F5B
:103470001883CC50D24084E090E0C75FDD4F998341
:103480008883C950D240C35FDD4F1883CD50D240EE
:10349000C55FDD4F0883CB50D240BE01675D7D4FD5
:1034A000CE018D5F9D4F0E94610F8093C805C75D5F
:1034B000DD4F68817981C952D240072E000C880BFC
:1034C000990B0E94D4276B017C016091CE0570910D
:1034D000CF058091D0059091D1050E94D2279B0104
:1034E000AC01C701B6010E94B62920E030E04AE7EE
:1034F00054E40E94B6296B017C01AE014F5F5F4F1F
:1035000068ED72E0CE010A960E944C18AC01C7012A
:10351000B6010E945A0AAE014F5F5F4F60E772E04A
:10352000CE010A960E944C18AC01609191037091F3
:10353000920380919303909194030E945A0AAE01E2
:103540004F5F5F4F63E972E0CE010A960E944C180C
:10355000FC01892B79F02091950330919603948199
:10356000907898609483C901B0E0A0E08083918353
:10357000A283B383AE014F5F5F4F60EE72E0CE0176
:103580000A960E944C18FC0180919003309759F0E4
:10359000948190789A60948390E0B0E0A0E080837A
:1035A0009183A283B3830E9403118C01AE014F5F0C
:1035B0005F4F68EE72E0CE010A960E944C187C01C3
:1035C000B801110F880B990B0E94D42720E030E03E
:1035D00040E858E30E943328A7010E945A0A08EEE7
:1035E00013E02DEA35E042E06DE38091AC050E94E6
:1035F00058106091AD057091AE0576276727762744
:10360000072E000C880B990B0E94D42720E030E095
:1036100040E858E30E9433286B017C01AE014F5F04
:103620005F4F6FEE72E0CE010A960E944C18AC011B
:10363000C701B6010E945A0A2DEA35E042E06FE365
:103640008091AC050E9458106091AD057091AE0557
:10365000762767277627072E000C880B990B0E9488
:10366000D42720E030E040E858E30E9433286B0183
:103670007C01AE014F5F5F4F66EF72E0CE010A96AC
:103680000E944C18AC01C701B6010E945A0A2DEAEB
:1036900035E042E063E48091AC050E9458106091EF
:1036A000AD057091AE05762767277627072E000CAB
:1036B000880B990B0E94D42720E030E04AE753E4BE
:1036C0000E94332820E030E040E058E30E94332895
:1036D0006B017C01AE014F5F5F4F6DEF72E0CE0179
:1036E0000A960E944C18AC01C701B6010E945A0A02
:1036F0002DEA35E042E065E48091AC050E94581067
:103700006091AD057091AE05762767277627072E65
:10371000000C880B990B0E94D42720E030E04AE788
:1037200053E40E94332820E030E040E058E30E9458
:1037300033286B017C01AE014F5F5F4F63E073E0A4
:10374000CE010A960E944C18AC01C701B6010E9436
:103750005A0A2DEA35E042E067E48091AC050E9408
:1037600058106091AD057091AE05762767277627D2
:10377000072E000C880B990B0E94D42720E030E024
:103780004AE753E40E94332820E030E040E058E369
:103790000E9433286B017C01AE014F5F5F4F69E0EF
:1037A00073E0CE010A960E944C18AC01C701B60125
:1037B0000E945A0A10918705AE014F5F5F4F6FE07C
:1037C00073E0CE010A960E944C18FC01892B29F067
:1037D00094819078966094831083609190057091A5
:1037E000910580919205909193050E94D2276B01DB
:1037F0007C01AE014F5F5F4F66E173E0CE010A9638
:103800000E944C18AC01C701B6010E945A0A80E719
:1038100094E0CD5FDD4F99838883C350D240CB5F66
:10382000DD4F19821882C550D240BE016D5F7D4FB9
:10383000CE010A960E94DC1180E992E00E9481117B
:1038400010929E03C65DDD4F0FB6F894DEBF0FBE2B
:10385000CDBFDF91CF911F910F91FF90EF90DF903F
:10386000CF90BF90AF909F908F9008951F920F922E
:103870000FB60F9211240BB60F922F933F934F93D5
:103880005F936F937F938F939F93AF93BF93EF93C8
:10389000FF938091B900887F803609F44DC008F00D
:1038A00040C0883209F4A9C028F5803109F49DC0D0
:1038B000C8F4882309F4FBC0883009F496C0FF914E
:1038C000EF91BF91AF919F918F917F916F915F9198
:1038D0004F913F912F910F900BBE0F900FBE0F9005
:1038E0001F901895883109F488C0803241F7809381
:1038F000380414C0803409F49DC040F48033B9F317
:103900008833E9F68093380485ECB0C0803509F43B
:1039100085C0883509F496C0883489F60E947F14E2
:10392000CECF883909F48CC038F5883729F050F4A7
:10393000883611F0803719F683E080933A041092AC
:10394000EC0357C0883809F47BC0803919F08038FF
:1039500009F0B5CF8091EC03803208F071C0E0919E
:10396000EC0381E08E0F8093EC038091BB00F0E0CC
:10397000E453FC4F80833DC0803B39F0E0F4803A53
:1039800009F479C0883A09F09ACF84E080933A0428
:103990001092CB031092CA03E091ED03F091EE0375
:1039A00019958091CA0381110FC081E08093CA03E9
:1039B0001092AA0309C0803C09F4A6CF883C09F400
:1039C000A3CF883B09F07BCFE091CB0381E08E0F42
:1039D0008093CB03F0E0E655FC4F80818093BB00E1
:1039E0009091CB038091CA0329C0809115048093E4
:1039F000BB0085EC8093BC0062CF9091370480912E
:103A00003604981758F5E091370481E08E0F8093C3
:103A10003704F0E0EA5EFB4F8081E9CFE0913704A4
:103A200081E08E0F809337048091BB00F0E0EA5E66
:103A3000FB4F808390913704809136049817C8F229
:103A400085E8D8CFE091370481E08E0F809337046A
:103A50008091BB00F0E0EA5EFB4F808380913904E7
:103A600081115CCF81E08093140484EA8093BC00D0
:103A700010923A0424CF85EC8093BC0010923A0453
:103A80008091EC03803230F4E091EC03F0E0E453F9
:103A9000FC4F10826091EC0370E0E091EF03F09135
:103AA000F0038CEC93E019951092EC0308CF109280
:103AB000380434CF1F920F920FB60F9211242F9318
:103AC0003F938F939F93AF93BF938091A103909166
:103AD000A203A091A303B091A4033091A00323E01B
:103AE000230F2D3758F50196A11DB11D2093A0037A
:103AF0008093A1039093A203A093A303B093A40384
:103B00008091A5039091A603A091A703B091A8036B
:103B10000196A11DB11D8093A5039093A603A093C8
:103B2000A703B093A803BF91AF919F918F913F914D
:103B30002F910F900FBE0F901F90189526E8230F1E
:103B40000296A11DB11DD2CF1F920F920FB60F92F8
:103B500011240BB60F922F933F934F935F936F9364
:103B60007F938F939F93AF93BF93EF93FF93E091D6
:103B70000F02F09110021995FF91EF91BF91AF9153
:103B80009F918F917F916F915F914F913F912F9175
:103B90000F900BBE0F900FBE0F901F9018951F92A5
:103BA0000F920FB60F9211240BB60F922F933F93E3
:103BB0004F935F936F937F938F939F93AF93BF9335
:103BC000EF93FF93E0910D02F0910E021995FF9192
:103BD000EF91BF91AF919F918F917F916F915F9185
:103BE0004F913F912F910F900BBE0F900FBE0F90F2
:103BF0001F9018951F920F920FB60F9211240BB6BB
:103C00000F922F933F934F935F936F937F938F9375
:103C10009F93AF93BF93EF93FF93E0910302F091D3
:103C200004021995FF91EF91BF91AF919F918F91F0
:103C30007F916F915F914F913F912F910F900BBEAC
:103C40000F900FBE0F901F9018951F920F920FB6F6
:103C50000F9211240BB60F922F933F934F935F93C4
:103C60006F937F938F939F93AF93BF93EF93FF9344
:103C7000E0910102F09102021995FF91EF91BF913D
:103C8000AF919F918F917F916F915F914F913F91F4
:103C90002F910F900BBE0F900FBE0F901F90189595
:103CA0001F920F920FB60F9211240BB60F922F9303
:103CB0003F934F935F936F937F938F939F93AF93B4
:103CC000BF93EF93FF93E0910B02F0910C021995D3
:103CD000FF91EF91BF91AF919F918F917F916F91E4
:103CE0005F914F913F912F910F900BBE0F900FBEA0
:103CF0000F901F9018951F920F920FB60F921124DC
:103D00000BB60F922F933F934F935F936F937F93D5
:103D10008F939F93AF93BF93EF93FF93E09109022B
:103D2000F0910A021995FF91EF91BF91AF919F9188
:103D30008F917F916F915F914F913F912F910F9054
:103D40000BBE0F900FBE0F901F9018951F920F92F1
:103D50000FB60F9211240BB60F922F933F934F93F0
:103D60005F936F937F938F939F93AF93BF93EF93E3
:103D7000FF93E0910702F09108021995FF91EF91EE
:103D8000BF91AF919F918F917F916F915F914F9173
:103D90003F912F910F900BBE0F900FBE0F901F9071
:103DA00018951F920F920FB60F9211240BB60F9217
:103DB0002F933F934F935F936F937F938F939F9333
:103DC000AF93BF93EF93FF93E0910502F09106024A
:103DD0001995FF91EF91BF91AF919F918F917F9135
:103DE0006F915F914F913F912F910F900BBE0F906C
:103DF0000FBE0F901F9018951F920F920FB60F9243
:103E000011240BB60F922F933F934F935F936F93B1
:103E10007F938F939F93AF93BF93EF93FF93809183
:103E20008B0390918C03A0918D03B0918E03892B0D
:103E30008A2B8B2BD1F190918A03809100008927E6
:103E40008093000080918B0390918C03A0918D034F
:103E5000B0918E03181619061A061B069CF4809161
:103E60008B0390918C03A0918D03B0918E030197E9
:103E7000A109B10980938B0390938C03A0938D03C8
:103E8000B0938E03FF91EF91BF91AF919F918F916E
:103E90007F916F915F914F913F912F910F900BBE4A
:103EA0000F900FBE0F901F90189580910002E2E3D3
:103EB000F2E0E4919FEF90930002E230E9F040F4E9
:103EC000EE2389F0E13091F060E00E94F102DACF58
:103ED000E43049F110F1E530B9F7909173009D7F1E
:103EE00090937300F1CF10926E00EECF90916F001F
:103EF0009D7F90936F00E8CF909170009D7F90938D
:103F0000700091E09093B0009091B100987F946020
:103F10009093B1001092B300D7CF909171009D7F24
:103F200090937100D1CF909172009D7F9093720019
:103F3000CBCF1F920F920FB60F9211240BB60F9298
:103F40002F933F934F935F936F937F938F939F93A1
:103F5000AF93BF93EF93FF9380E794E00E941E0816
:103F6000FF91EF91BF91AF919F918F917F916F9151
:103F70005F914F913F912F910F900BBE0F900FBE0D
:103F80000F901F9018951F920F920FB60F92112449
:103F90000BB60F922F938F939F93EF93FF93E09124
:103FA0008004F09181048081E0918604F09187047F
:103FB00082FD1DC09081809189048F5F8F73209155
:103FC0008A04821741F0E0918904F0E0E059FB4F48
:103FD000958F80938904FF91EF919F918F912F91FD
:103FE0000F900BBE0F900FBE0F901F901895808101
:103FF000F2CF1F920F920FB60F9211240BB60F92B1
:104000002F933F934F935F936F937F938F939F93E0
:10401000AF93BF93CF93DF93EF93FF938091890387
:10402000C0914905D0E087FF23C01092850010920F
:104030008400809189038F5F809389038091890335
:10404000082E000C990B8C179D0724F4809189038E
:104050008C3074F1809184009091850084349C4967
:1040600008F465C08091840090918500049661C039
:1040700080918903082E000C990B8C179D07CCF6B4
:104080003091890325E03203F0011124E35FFA4FF8
:10409000808186FFCECF309189033203F001112455
:1040A000E35FFA4F808160E08F730E94F102C1CF1D
:1040B00080918400909185003091890325E032033E
:1040C000F0011124E35FFA4F41815281840F951F63
:1040D0009093890080938800309189033203F00126
:1040E0001124E35FFA4F808186FF0CC03091890371
:1040F0003203F0011124E35FFA4F808161E08F7396
:104100000E94F102FF91EF91DF91CF91BF91AF91AA
:104110009F918F917F916F915F914F913F912F91DF
:104120000F900BBE0F900FBE0F901F90189580E45C
:104130009CE990938900809388008FEF8093890396
:10414000E1CF109267041092660488EE93E0A0E03D
:10415000B0E08093680490936904A0936A04B093DC
:104160006B042FE232E030936504209364041092D4
:104170007304109272048093740490937504A09356
:104180007604B093770481E492E090937104809375
:10419000700485EC90E090937D0480937C0484EC23
:1041A00090E090937F0480937E0480EC90E0909365
:1041B00081048093800481EC90E090938304809349
:1041C000820482EC90E0909385048093840486ECD2
:1041D00090E0909387048093860410928904109253
:1041E0008A0410928B0410928C048CE08093BC059E
:1041F00084E28093BD0585E08093BE0596E09093B0
:10420000BF059EE19093C0059FE19093C10592E2A6
:104210009093C20593E29093C30594E49093C405F0
:1042200095E49093C5051092C7051092C60590E4D9
:104230009093C9051092CE051092CF051092D0052B
:104240001092D1051092D2051092D3051092D40588
:104250001092D50598E0E7E1F2E0AEEDB5E001900F
:104260000D929A95E1F740E050E060EA70E44093E7
:10427000E6055093E7056093E8057093E905E09142
:104280004905EC3008F0CAC091E09E0F90934905B3
:10429000E093BB058E9FF0011124E35FFA4F88EB9A
:1042A0009BE09283818388E68093AC051092700531
:1042B0001092710510927205109273051092740598
:1042C0001092750510927605109277051092780578
:1042D0001092790510927A0510927B0510927D0557
:1042E00010927C0510927F0510927E051092810538
:1042F0001092800510928205109283051092840519
:1043000010928505109286051092870510929405EB
:1043100010929505109296051092970510929805A7
:104320001092990510929A0510929B0580E090E0FA
:10433000A0EAB0E480939C0590939D05A0939E0510
:10434000B0939F0580E090E0A8ECB2E48093A005D4
:104350009093A105A093A205B093A3051092A40584
:104360001092A5051092A6051092A7051092A80517
:104370001092A9051092AA051092AB0510925F0544
:10438000109260051092610510926205109263050B
:104390001092640510926505109266058FEF9FEFED
:1043A000DC018093680590936905A0936A05B0933A
:1043B0006B0580936C0590936D05A0936E05B0938B
:1043C0006F051092670510925E0510925D051092C0
:1043D0004C0510924D0510924E0510924F0510920B
:1043E000500510925105109252051092530580937A
:1043F000550590935605A0935705B09358058093A3
:10440000590590935A05A0935B05B0935C051092F3
:10441000540510924B0510924A0508958FEF809332
:10442000BB0541CFCF93DF93CDB7DEB7A6970FB6CD
:10443000F894DEBF0FBECDBF789484B5826084BD92
:1044400084B5816084BD85B5826085BD85B5816098
:1044500085BD80916E00816080936E001092810016
:1044600080918100826080938100809181008160D1
:104470008093810080918000816080938000809192
:10448000B10084608093B1008091B000816080931E
:10449000B0008091910082608093910080919100A2
:1044A0008160809391008091900081608093900062
:1044B0008091A10082608093A1008091A100816021
:1044C0008093A1008091A00081608093A0008091E2
:1044D000210182608093210180912101816080937C
:1044E00021018091200181608093200180917A00D8
:1044F000846080937A0080917A00826080937A0051
:1045000080917A00816080937A0080917A0080683F
:1045100080937A001092C100E0918004F0918104B0
:1045200082E08083E0917C04F0917D041082E09130
:104530007E04F0917F0480E1808310928804E091F2
:104540008404F091850486E08083E0918204F091F8
:104550008304808180618083E0918204F0918304F0
:10456000808188608083E0918204F091830480815F
:1045700080688083E0918204F091830480818F7D44
:10458000808361E08091BD050E945E0360E08091C0
:10459000BD050E94F10260E08091BC050E945E03AF
:1045A0008091C6059091C705892BA9F486E090E01B
:1045B0000E94682AFC018091C905808384E694E00A
:1045C00092838183138280E290E095838483F093C9
:1045D000C705E093C605E090C605F090C7051092A8
:1045E000F2031092F10310924104109263040E94AE
:1045F0001F038BED91E09093EE038093ED038CED20
:1046000091E09093F0038093EF0311E0D7011396AC
:104610001C93C7010E947005882309F45BC080E0E9
:1046200090E1A0E0B0E08093CA059093CB05A09301
:10463000CC05B093CD058AE090E0A0E0B0E0809397
:10464000CE059093CF05A093D005B093D10580E01F
:1046500090E0A0E0B0E48093D2059093D305A093BE
:10466000D405B093D5058091C6059091C7051BA2CE
:104670001CA21DA21EA29D8B8C8B1F8A1E8A1D8FC1
:1046800085E090E09B8F8A8F1E8F02E00C8F40E0C8
:1046900050E160E070E0CE0144960E94E605809112
:1046A000C6059091C705188A198A1A8A1B8A9A83A7
:1046B00089831C821B821A8718861F821B870987A1
:1046C0004FE959E360E070E0CE0101960E94E605F3
:1046D0008093C8053EEBE32E35E0F32E0CEB15E09E
:1046E0004CE9642E42E0742E52EE852E52E0952E57
:1046F0006BECC62E67E0D62E7BE8A72EBB24B394C6
:10470000F7019281D7018D917D01F801828F938FFE
:1047100061E00E945E0361E0D8015B968C910E948B
:104720005E03F70195818381D8015E968C935E9735
:104730005F969C9361E00E945E0360E0F801878DC4
:104740000E945E0361E0D8015E968C910E94F102A6
:104750005FB6F89480918F03811125C0F301849195
:10476000F4019491E82FF0E0EE0FFF1FED5CFD4F98
:10477000A591B4918C91982321F461E085E30E9486
:10478000F10261E085E30E945E038CB580618CBD1F
:104790008CB580648CBD61E084E30E945E0361E0BF
:1047A00083E30E945E0380918F038F5F80938F036A
:1047B0005FBEC6010197F1F760E0D8015E968C916B
:1047C0000E94F10288E80E94530A83E00E94530A83
:1047D00061E0F801868D0E94F102C6010197F1F7B0
:1047E00060E0D8015E968C910E94F10288E90E94F7
:1047F000530A80E00E94530A80E00E94530A80E03E
:104800000E94530A80E00E94530A61E0F801868DFD
:104810000E94F102C5010197F1F760E0D8015E96B0
:104820008C910E94F10280EE0E94530A61E0F8012F
:10483000868D0E94F1020E5F1F4FF5E0003C1F07BE
:1048400009F05ECF01E023E042E06BE68091AC0529
:104850000E941C1100E022E044E06BE18091AC0575
:104860000E941C1122E044E06CE18091AC050E94A2
:104870001C11F090AC0508EE13E09E012C5E3F4F3A
:1048800041E06BE68F2D0E9458108C898F7B8C8BBA
:104890008983AE014F5F5F4F6BE68F2D0E94A905A4
:1048A00082E08093970383E08093980362E082E044
:1048B0000E945E0362E0809198030E945E039091E3
:1048C0009703923009F0CBC184EB9BE090930202F6
:1048D0008093010280916A008C7F826080936A00DD
:1048E000EC9A84E690E0A0E0B0E080935F059093BE
:1048F0006005A0936105B09362058FE997E09093FE
:104900005E0580935D0581E0809367050E949307B3
:1049100000915F051091600520916105309162055D
:10492000DC01CB01800F911FA21FB31F8093630591
:1049300090936405A0936505B09366058091680522
:1049400090916905A0916A05B0916B0580936C0503
:1049500090936D05A0936E05B0936F058DE691E180
:1049600090934B0580934A0580E090E0A0E8BEE379
:104970008093700590937105A0937205B0937305B1
:104980008DEC9CECACECBDE38093740590937505C5
:10499000A0937605B093770510927805109279056B
:1049A00010927A0510927B0583EA97E090937D053B
:1049B00080937C0584EA97E090937F0580937E0541
:1049C00085EA97E090938105809380058FE692E1D8
:1049D000A3E8BAE380939C0590939D05A0939E0560
:1049E000B0939F0588EC90E0A0E0B0E080938C0548
:1049F00090938D05A0938E05B0938F058DEC9CEC64
:104A0000ACE4BEE38093880590938905A0938A0562
:104A1000B0938B0511E080919F0381110E94721663
:104A200080919E0381110E94821880919D038823AA
:104A300009F463C08091950390919603B0E0A0E0E3
:104A400080934C0590934D05A0934E05B0934F0570
:104A500080914A0590914B05892B51F11093540593
:104A60000E949307C0904C05D0904D05E0904E05F4
:104A7000F0904F05DC01CB018C0D9D1DAE1DBF1DBF
:104A80008093500590935105A0935205B093530520
:104A90008091550590915605A0915705B091580504
:104AA0008093590590935A05A0935B05B0935C05DC
:104AB00081E090E0A0E0B0E080935505909356052A
:104AC000A0935705B0935805C0909103D0909203DE
:104AD000E0909303F0909403B701A60186ED95E072
:104AE0000E942C09B701A601705888ED95E00E943C
:104AF0002C0910929D03109390030E940311BC0196
:104B0000990F880B990B0E94D42720E030E040E8F1
:104B100058E30E9433286B017C014B015C01AC011E
:104B20009B010E94632A882309F4E0C081E293E09C
:104B30000E9481118DE293E00E948111C09099033F
:104B4000D0909A03E0909B03F0909C034AE0C70149
:104B5000B601F7FE0DC06DE280E794E00E944008C8
:104B600066277727CB016C197D098E099F094AE0DA
:104B70000E948E118DE595E00E94E0088AE495E0A0
:104B80000E94E0080E949307C0909405D09095057C
:104B9000E0909605F09097056C157D058E059F05B4
:104BA00008F45AC080918605882309F455C00E94F4
:104BB0009307C0908C05D0908D05E0908E05F09005
:104BC0008F05DC01CB018C0D9D1DAE1DBF1D80939B
:104BD000940590939505A0939605B0939705C09082
:104BE0008205D0908305E0908405F0908505E091E2
:104BF0007C05F0917D0519959B01AC01C701B601BB
:104C00000E9449296B017C019F7720919C0530917E
:104C10009D0540919E0550919F050E94CD2787FFDD
:104C2000F9C01093870510928605E0918005F091F8
:104C30008105309709F0199580919405909195051B
:104C4000A0919605B091970580939805909399054A
:104C5000A0939A05B0939B050E94B108DCCE9330D7
:104C600071F484EB9BE090930402809303028091A3
:104C70006A00837F886080936A00ED9A32CE8EEE60
:104C8000890F843008F02DCE87E1891BE82FF0E0F2
:104C9000EE0FFF1FEF5FFD4F24EB3BE031832083DE
:104CA0008430A1F08530D1F0833041F080916900EB
:104CB0008C7F826080936900E89A13CE80916900AE
:104CC000837F886080936900E99A0BCE80916900A8
:104CD0008F7C806280936900EA9A03CE809169009C
:104CE0008F73806880936900EB9AFBCD26013701B2
:104CF000E89477F82FEF3FEF4FE75FE7C301B2018A
:104D00000E94632A81110DC02FEF3FEF4FE75FE74D
:104D1000C301B2010E94CD2718161CF485E293E06E
:104D200007CF2FEF3FEF4FE75FE4C701B6010E94C7
:104D30005E2A18161CF489E293E0FACE2FEF3FEFBB
:104D40004FE75FECC701B6010E94CD2787FDF3CF87
:104D500020E030E0A901C701B6010E94CD2787FFFE
:104D60000BC06DE280E794E00E94400846015701C5
:104D7000B7FAB094B7F8B0942AE037ED43EA5BE3B2
:104D8000C501B4010E944A294B015C010E942F2AEF
:104D90006B017C010E94D2279B01AC01C501B401CB
:104DA0000E9449294B015C014AE0C701B6010E94FB
:104DB0008E116EE280E794E00E94400820E030E02F
:104DC00040E251E4C501B4010E9433284B015C016B
:104DD0000E942F2A6B01F12CE12C4AE0C701B60199
:104DE0000E948E11C701B6010E94D2279B01AC011F
:104DF000C501B4010E94492920E030E040E251E4BD
:104E00000E9433280E942F2A90E080E04AE00E940E
:104E10008E1190CE20907E0530907F050E949307E2
:104E20008090980590909905A0909A05B0909B0568
:104E3000681979098A099B09609390057093910517
:104E400080939205909393052091A4053091A50538
:104E50004091A6055091A705C701B6010E944A29B5
:104E60006093A4057093A5058093A6059093A7056C
:104E70008090A0059090A105A090A205B090A305F8
:104E8000A50194010E945E2A181644F48092A4059C
:104E90009092A505A092A605B092A705B7FAB09486
:104EA000B7F8B094A50194016091A4057091A5058F
:104EB0008091A6059091A7050E94CD2787FF08C085
:104EC0008092A4059092A505A092A605B092A70590
:104ED0008090880590908905A0908A05B0908B05F8
:104EE0002091A4053091A5054091A6055091A705F4
:104EF00060917405709175058091760590917705A4
:104F00000E943328A50194010E9433282B013C0103
:104F10002091700530917105409172055091730593
:104F2000C701B6010E9433289B01AC01C301B20145
:104F30000E944A292B013C012091A8053091A90526
:104F40004091AA055091AB05C701B6010E944929BD
:104F5000209178053091790540917A0550917B0533
:104F60000E943328A50194010E94B6299B01AC013F
:104F7000C301B2010E944A29C092A805D092A90596
:104F8000E092AA05F092AB05F101199555CE8091FA
:104F9000C6059091C7050C94042B0E940F2808F4B5
:104FA00081E00895E89409C097FB3EF490958095C0
:104FB000709561957F4F8F4F9F4F9923A9F0F92FDF
:104FC00096E9BB279395F695879577956795B7955D
:104FD000F111F8CFFAF4BB0F11F460FF1BC06F5F43
:104FE0007F4F8F4F9F4F16C0882311F096E911C055
:104FF000772321F09EE8872F762F05C0662371F076
:1050000096E8862F70E060E02AF09A95660F771F89
:10501000881FDAF7880F9695879597F90895990F65
:105020000008550FAA0BE0E8FEEF16161706E80772
:10503000F907C0F012161306E407F50798F0621B93
:10504000730B840B950B39F40A2661F0232B242B68
:10505000252B21F408950A2609F4A140A6958FEF87
:10506000811D811D08950E9446280C94B7280E9436
:10507000A92838F00E94B02820F0952311F00C9454
:10508000A0280C94A62811240C94EB280E94C82870
:1050900070F3959FC1F3950F50E0551F629FF0018B
:1050A000729FBB27F00DB11D639FAA27F00DB11DA4
:1050B000AA1F649F6627B00DA11D661F829F22272D
:1050C000B00DA11D621F739FB00DA11D621F839FB4
:1050D000A00D611D221F749F3327A00D611D231F8A
:1050E000849F600D211D822F762F6A2F11249F57D8
:1050F00050409AF0F1F088234AF0EE0FFF1FBB1FDB
:10510000661F771F881F91505040A9F79E3F510599
:1051100080F00C94A0280C94EB285F3FE4F3983EB9
:10512000D4F3869577956795B795F795E7959F5F43
:10513000C1F7FE2B880F911D9695879597F90895D5
:1051400097F99F6780E870E060E008959FEF80EC3A
:10515000089500240A9416161706180609060895DD
:1051600000240A9412161306140605060895092E43
:105170000394000C11F4882352F0BB0F40F4BF2BB2
:1051800011F460FF04C06F5F7F4F8F4F9F4F0895F2
:1051900057FD9058440F551F59F05F3F71F04795E8
:1051A000880F97FB991F61F09F3F79F087950895CD
:1051B000121613061406551FF2CF4695F1DF08C0EC
:1051C000161617061806991FF1CF86957105610509
:1051D00008940895E894BB2766277727CB0197F9B1
:1051E00008950E941E29A59F900DB49F900DA49F25
:1051F000800D911D11240895A1E21A2EAA1BBB1B3C
:10520000FD010DC0AA1FBB1FEE1FFF1FA217B30792
:10521000E407F50720F0A21BB30BE40BF50B661FA8
:10522000771F881F991F1A9469F76095709580956C
:1052300090959B01AC01BD01CF010895A29FB001E3
:10524000B39FC001A39F700D811D1124911DB29FBA
:10525000700D811D1124911D0895AA1BBB1B51E1E6
:1052600007C0AA1FBB1FA617B70710F0A61BB70BD6
:10527000881F991F5A95A9F780959095BC01CD017B
:105280000895EE0FFF1F881F8BBF0790F691E02D4A
:1052900019945058BB27AA270E9461290C94B7285B
:1052A0000E94A92838F00E94B02820F039F49F3FCE
:1052B00019F426F40C94A6280EF4E095E7FB0C9460
:1052C000A028E92F0E94C82858F3BA17620773076D
:1052D0008407950720F079F4A6F50C94EA280EF4DB
:1052E000E0950B2EBA2FA02D0B01B90190010C01F6
:1052F000CA01A0011124FF27591B99F0593F50F40E
:10530000503E68F11A16F040A22F232F342F442765
:10531000585FF3CF469537952795A795F04053955D
:10532000C9F77EF41F16BA0B620B730B840BBAF02D
:105330009150A1F0FF0FBB1F661F771F881FC2F798
:105340000EC0BA0F621F731F841F48F487957795AC
:105350006795B795F7959E3F08F0B0CF9395880F66
:1053600008F09927EE0F9795879508950E94CA290E
:105370000C94B7280E94B02858F00E94A92840F049
:1053800029F45F3F29F00C94A02851110C94EB28CC
:105390000C94A6280E94C82868F39923B1F35523DA
:1053A00091F3951B550BBB27AA2762177307840738
:1053B00038F09F5F5F4F220F331F441FAA1FA9F3CE
:1053C00035D00E2E3AF0E0E832D091505040E695BC
:1053D000001CCAF72BD0FE2F29D0660F771F881F1D
:1053E000BB1F261737074807AB07B0E809F0BB0B10
:1053F000802DBF01FF2793585F4F3AF09E3F510524
:1054000078F00C94A0280C94EB285F3FE4F3983ECE
:10541000D4F3869577956795B795F7959F5FC9F70C
:10542000880F911D9695879597F90895E1E0660F8D
:10543000771F881FBB1F621773078407BA0720F006
:10544000621B730B840BBA0BEE1F88F7E09508956F
:105450000E942F2A6894B1110C94EB2808950E94A1
:10546000D02888F09F5798F0B92F9927B751B0F0FE
:10547000E1F0660F771F881F991F1AF0BA95C9F7D8
:1054800014C0B13091F00E94EA28B1E008950C9464
:10549000EA28672F782F8827B85F39F0B93FCCF317
:1054A000869577956795B395D9F73EF49095809555
:1054B000709561957F4F8F4F9F4F08950E940F28E1
:1054C00008F48FEF08950E940F28880B990B089518
:1054D0000F931F93CF93DF938230910510F482E0F6
:1054E00090E0E091EC05F091ED0530E020E0B0E0D7
:1054F000A0E0309799F42115310509F44AC0281B22
:10550000390B24303105D8F58A819B8161157105ED
:1055100089F1FB0193838283FE0111C04081518197
:105520000281138148175907E0F04817590799F489
:10553000109761F012960C93129713961C93329663
:10554000CF01DF91CF911F910F9108950093EC054A
:105550001093ED05F4CF2115310551F04217530793
:1055600038F0A901DB019A01BD01DF01F801C1CFCB
:10557000EF01F9CF9093ED058093EC05CDCFFE01BF
:10558000E20FF31F819391932250310939832883CD
:10559000D7CF2091EA053091EB05232B41F42091E0
:1055A0001302309114023093EB052093EA05209109
:1055B0001102309112022115310541F42DB73EB789
:1055C0004091150250911602241B350BE091EA051B
:1055D000F091EB05E217F307A0F42E1B3F0B281701
:1055E000390778F0AC014E5F5F4F2417350748F05C
:1055F0004E0F5F1F5093EB054093EA058193919303
:105600009FCFF0E0E0E09CCFCF93DF930097E9F0ED
:10561000FC01329713821282A091EC05B091ED0546
:10562000ED0130E020E01097A1F420813181820F5C
:10563000931F2091EA053091EB052817390709F0EF
:1056400061C0F093EB05E093EA05DF91CF910895F7
:10565000EA01CE17DF07E8F54A815B819E0141151B
:105660005105B1F7E901FB83EA8349915991C40FD0
:10567000D51FEC17FD0761F4808191810296840F9C
:10568000951FE90199838883828193819B838A8313
:10569000F0E0E0E012968D919C9113970097B9F598
:1056A0002D913C911197CD010296820F931F20916D
:1056B000EA053091EB052817390739F6309751F58F
:1056C0001092ED051092EC05B093EB05A093EA055E
:1056D000BCCFD383C28340815181840F951FC817EB
:1056E000D90761F44E5F5F4F88819981480F591F38
:1056F000518340838A819B81938382832115310565
:1057000009F0B0CFF093ED05E093EC059ECFFD01DD
:10571000DC01C0CF13821282D7CFFB01DC018D9157
:10572000019080190110D9F3990B089511E0CEE989
:10573000D1E000E006C0802FFE010E9441292196A1
:10574000011DCF39D10780E00807A9F7F894FFCFF2
:10575000FFA607A607A607A607A607A607A607A6E9
:10576000070000EE058000300031003200330033C6
:10577000033603410351035E036703000000005B2F
:10578000022E02D4070402270214020502000000C0
:10579000004008A707D7078D080808E607FA072F73
:1057A0002F22225C5C6208660C6E0A720D7409007E
:1057B0006E756C6C00747275650066616C73650063
:1057C00070756C736550574D0064657365726961DF
:1057D0006C697A652829206661696C65643A2000E5
:1057E0000D0A0070756C736554696D650070756C99
:1057F000736500736574476F616C0074696D650053
:10580000706F7456657800656E6356657800676FD3
:10581000616C006D6561737572656D656E747300A2
:10582000766F6C746167650063757272656E740083
:10583000696E50756C736500616363656C580061D7
:105840006363656C5900616363656C5A00677972C4
:105850006F58006779726F59006779726F5A0069E3
:1058600073476F616C0061637475616C54696D6539
:10587000006E616E00696E66006F76660050726938
:105880006E74004F6B00456D707479496E7075745D
:1058900000496E636F6D706C657465496E707574E8
:1058A00000496E76616C6964496E707574004E6F64
:1058B0004D656D6F727900546F6F446565700000BF
:00000001FF
